:1000000049C06FC06EC06DC06CC06BC06AC06AC0B2
:1000100068C067C066C077C964C0B4C99DC961C003
:1000200060C05FC05EC0DBC580C4F0C0A5C1DEC1DA
:100030001FC274C2D2C21DC364C3B5C310C4A0C45E
:10004000A4C4B3C4B7C4BBC4CAC4CEC4F8C416C520
:100050004AC505A84CCDB2D44EB93836A9020C50C9
:10006000B9918688083CA6AAAA2ABE000000803F53
:100070000664EC1B3C04BC163E3BE5B93CC93C376E
:10008000C29E5A3D660498083EEA69AAAA3E00004C
:1000900000803F0011241FBECFEFD2E0DEBFCDBFF6
:1000A00084B78093FB0114BE88E10FB6F894809367
:1000B0006000109260000FBE11E0A0E0B1E0EAE63F
:1000C000FCE102C005900D92AC31B107D9F711E007
:1000D000ACE1B1E001C01D92AB3FB107E1F7FED941
:1000E000C2CD8ECF1F920F920FB60F9211242F9375
:1000F0003F934F935F936F937F938F939F93AF93B0
:10010000BF93EF93FF9380915A01882329F08230A7
:1001100099F469D981E00BC0809176018F5F80935B
:1001200076018C3031F486E090E05ED083E08093FD
:100130005A0114BEA89507C04EED51E060E471E08D
:100140008CE591E06AD9FF91EF91BF91AF919F91BA
:100150008F917F916F915F914F913F912F910F9070
:100160000FBE0F901F90189590931E0180931D0154
:1001700008959093200180931F0108959093220188
:1001800080932101089581E080931C010895CF930D
:10019000DF93E0911F01F091200122813381C09112
:1001A0001D01D0911E01A0912101B09122012817BB
:1001B000390779F09C01255031092230310548F486
:1001C00021E030E0398328833183208311963C93EA
:1001D0002E939B838A839383828313969C938E931F
:1001E0001297DF91CF910895EF92FF920F931F9393
:1001F000CF93DF938B30910508F0A9C3FC01EC5E2F
:10020000FF4FC0911D01D0911E0109948EEF9FEF09
:1002100099838883A0911F01B091200111969C932E
:100220008E93E0912101F09122019183808340E03F
:1002300050E060E87FE3488759876A877B87189694
:100240004D935D936D937C931B9740875187628795
:100250007387A9D890E06EE170E0C0D9825F9E4FAD
:10026000BC01882777FD8095982FD0DA20E030E018
:1002700044EB53E430DA9B01AC01C2D92BED3FE0F3
:1002800049E450E40CDC6C877D878E879F87C091A2
:100290001F01D091200187D890E06EE170E09ED9D7
:1002A000865A9F4FBC01882777FD8095982FAEDA3C
:1002B00020E030E044EB53E40EDA9B01AC01A0D91E
:1002C0002BED3FE049E450E4EADB6C877D878E87C5
:1002D0009F87C0912101D091220165D890E06EE105
:1002E00070E07CD98C549F4FBC01882777FD8095A6
:1002F000982F8CDA20E030E044EB53E4ECD99B01FA
:10030000AC017ED92BED3FE049E450E4C8DB6C87BB
:100310007D878E879F87E0911D01F0911E0180E00F
:1003200090E0A0EFB2E4808B918BA28BB38B848B97
:10033000958BA68BB78BE0911F01F091200180E097
:1003400090E0A8E4B2E4808B918BA28BB38B848B7A
:10035000958BA68BB78BE0912101F091220180E073
:1003600090E0ACE8B2E4808B918BA28BB38B848B52
:10037000958BA68BB78B31C08EEF9FEF99838883C7
:10038000A0911F01B091200111969C938E93E09152
:100390002101F09122019183808340E050E060E0F0
:1003A00070E4488759876A877B8718964D935D93D9
:1003B0006D937C931B9740875187628773871C8658
:1003C0001D861E861F861C961D921D921D921C92D4
:1003D0001F97148615861686178681E090E0DF91B8
:1003E000CF911F910F91FF90EF90D1CE8EEF9FEFA5
:1003F00099838883A0911F01B091200111969C934D
:100400008E93E0912101F09122019183808340E05D
:1004100050E060E471E4488759876A877B871896C3
:100420004D935D936D937C931B97408751876287B3
:1004300073871C861D861E861F861C961D921D9224
:100440001D921C921F9714861586168617861C8A85
:100450001D8A1E8A1F8A54961D921D921D921C92FF
:100460005797148A158A168A178A84E090E0B7CFC6
:1004700081E090E09983888320911F0130912001D1
:10048000D90111969C938E93E0912101F091220164
:100490009183808340E050E060E070E448875987B2
:1004A0006A877B8718964D935D936D937C931B971A
:1004B00040875187628773871C861D861E861F862C
:1004C0001C961D921D921D921C921F9714861586D4
:1004D00016861786188A198A1A8A1B8A1C8A1D8A08
:1004E0001E8A1F8A80E090E0A6EEB2E4E901888BC4
:1004F000998BAA8BBB8B80E090E0A0EFB2E48C8B51
:100500009D8BAE8BBF8B108A118A128A138A148A34
:10051000158A168A178A85E090E061CF81E090E025
:1005200099838883E0901F01F0902001F701918367
:1005300080830091210110912201D80111969C9392
:100540008E9340E050E060E070E4488759876A8706
:100550007B87408751876287738718964D935D9399
:100560006D937C931B971C861D861E861F861486A2
:100570001586168617861C961D921D921D921C923A
:100580001F97688D70E080E090E03ED9688B798B92
:100590008A8B9B8B1C8A1D8A1E8A1F8AE701688DA5
:1005A00070E080E090E030D9688B798B8A8B9B8BF0
:1005B0001C8A1D8A1E8A1F8AE801688D70E080E00F
:1005C00090E022D9688B798B8A8B9B8B1C8A1D8A41
:1005D0001E8A1F8A86E090E002CF8EEF9FEF9983FC
:1005E000888320911F0130912001F901918380833C
:1005F000E0912101F09122019183808340E050E05D
:1006000060E87FE3488759876A877B87D901189616
:100610004D935D936D937C931B97408751876287C1
:1006200073871C861D861E861F861C961D921D9232
:100630001D921C921F97148615861686178680E0D9
:1006400090E0A6EEB2E4888B998BAA8BBB8B80E0FE
:1006500090E0A0EFB2E48C8B9D8BAE8BBF8BE90159
:10066000188A198A1A8A1B8A1C8A1D8A1E8A1F8A5E
:10067000EDC08EEF9FEF9983888320911F01309109
:100680002001F90191838083E0912101F091220101
:100690009183808340E050E060E87FE3488759879A
:1006A0006A877B87D90118964D935D936D937C93F0
:1006B0001B9740875187628773871C861D861E861D
:1006C0001F861C961D921D921D921C921F971486C8
:1006D000158616861786188A198A1A8A1B8A1C8A12
:1006E0001D8A1E8A1F8A80E090E0A6EEB2E4E9012E
:1006F000888B998BAA8BBB8B80E090E0A0EFB2E453
:10070000A1C08EEF9FEF99838883A0911F01B091C4
:10071000200111969C938E93E0912101F09122018A
:100720009183808340E050E060E87FE34887598709
:100730006A877B8718964D935D936D937C931B9787
:1007400040875187628773871C861D861E861F8699
:100750001C961D921D921D921C921F971486158641
:1007600016861786188A198A1A8A1B8A1C8A1D8A75
:100770001E8A1F8A50961D921D921D921C9253979D
:1007800054961D921D921D921C92579780E090E006
:10079000A6EEB2E4808B918BA28BB38B80E090E0CD
:1007A000A0EFB2E4BBC08EEF9FEF998388832091C6
:1007B0001F0130912001F90191838083E091210193
:1007C000F09122019183808340E050E060E87FE374
:1007D000488759876A877B87D90118964D935D931F
:1007E0006D937C931B9740875187628773871C8624
:1007F0001D861E861F861C961D921D921D921C92A0
:100800001F97148615861686178680E090E0A6EE60
:10081000B2E4888B998BAA8BBB8B80E090E0A0EF31
:10082000B2E48C8B9D8BAE8BBF8B80E090E0A4E319
:10083000B2E4E901888B998BAA8BBB8B80E090E0B6
:10084000A8E4B2E48C8B9D8BAE8BBF8B108A118A8F
:10085000128A138A148A158A168A178A63C08EEF41
:100860009FEF9983888320911F0130912001F90126
:1008700091838083E0912101F09122019183808313
:1008800040E050E060E87FE3488759876A877B87CC
:10089000D90118964D935D936D937C931B97408778
:1008A0005187628773871C861D861E861F861C964D
:1008B0001D921D921D921C921F97148615861686F6
:1008C000178680E090E0A6EEB2E4888B998BAA8B25
:1008D000BB8B80E090E0A0EFB2E48C8B9D8BAE8B65
:1008E000BF8B80E090E0AEEBB2E4E901888B998B9E
:1008F000AA8BBB8B80E090E0A8ECB2E48C8B9D8B44
:10090000AE8BBF8B80E090E0A8EDB1E4808B918B43
:10091000A28BB38B80E090E0A0EFB1E4848B958B49
:10092000A68BB78B82E090E05ACDCE01EBD18091BF
:100930001F0190912001E6D1809121019091220127
:10094000DF91CF911F910F91FF90EF90DBC1DF916D
:10095000CF911F910F91FF90EF900895CF93DF9368
:100960004115510509F4C8C08A30910508F0C4C08A
:10097000815E9F4FFA01E60FF71F8F939F930895B3
:10098000C0911D01D0911E0104C0C0911F01D091E2
:1009900020016081772767FD7095872F972F36D7C5
:1009A0006C8B7D8B8E8B9F8BA7C0C0912101D091CA
:1009B0002201EFCFC0911D01D0911E0104C0C09152
:1009C0001F01D09120016081772767FD7095872FE7
:1009D000972F1CD7688B798B8A8B9B8B8DC0C0918E
:1009E0002101D0912201EFCF81816081772767FDBE
:1009F0007095762F6627682B80E090E005D79B01E5
:100A0000AC0160E070E08AE795E465D6E0911D01F5
:100A1000F0911E016087718782879387E0911F01A3
:100A2000F09120016087718782879387E09121018F
:100A3000F091220160877187828793875DC0A091C2
:100A40001D01B0911E018081992787FD90958D939E
:100A50009C93A0911F01B09120018081992787FD6F
:100A600090958D939C93A0912101B091220180815A
:100A7000992787FD90958D939C933EC081816081DD
:100A8000772767FD7095762F6627682B80E090E0CA
:100A9000BBD620E030E044EB53E41DD69B01AC0113
:100AA000AFD52BED3FE049E450E4F9D781D680E0A3
:100AB00090E0AAD6E0911D01F0911E016487758730
:100AC00086879787E0911F01F091200164877587E1
:100AD00086879787E0912101F091220164877587CD
:100AE0008687978709C080818B3034F4992787FDEA
:100AF0009095DF91CF9178CBDF91CF910895CF92F0
:100B0000DF92EF92FF920F931F93CF93DF938C01AD
:100B10007B010097A9F11616170694F580911C0128
:100B2000882371F1F8018081873021F0992787FDB2
:100B300090952DDBC1E0D0E0CE15DF051CF5F80166
:100B4000EC0FFD1F80818A30E8F4992787FD90958E
:100B5000FC01EE0FFF1FEA5FFE4FC080D1809E01B7
:100B60002C0D3D1D2E153F056CF4BE016F5F7F4FB0
:100B7000A801F4DEFFEFCF1ADF0ACC0DDD1DDCCFBC
:100B800080E001C081E010921C01DF91CF911F91A4
:100B90000F91FF90EF90DF90CF900895249A2C98BA
:100BA000880F805381608093BA00ECEBF0E085E41D
:100BB0008083808180688083089590933F01809333
:100BC0003E0108959093DD018093DC01089587E74D
:100BD00091E008958091F8019091F90108951F9294
:100BE0000F920FB60F9211242F933F934F935F9361
:100BF0006F937F938F939F93AF93BF93EF93FF93E5
:100C00008091B9008839C9F1D0F4803769F178F45E
:100C1000882321F1803609F05BC01092F90110920F
:100C2000F80181E080935B018093FA0126C0883847
:100C300021F1803911F1803809F04AC02EC0803B83
:100C4000E1F028F4803AE9F0883AB9F041C0883CF4
:100C5000A1F0883F19F0883BD9F50FC080E9809357
:100C6000BC00A1D39BDF38C0E0913E01F0913F0171
:100C7000309709F009951092FA0185EC8093BC0039
:100C80002BC08091FA018823C1F3E091DC01F0913F
:100C9000DD01309791F30995F0CF8091F8019091A3
:100CA000F9018436910511F410925B0120915B01EA
:100CB000222319F39C012F5F3F4F3093F9012093BA
:100CC000F8012091BB00FC01E958FE4F2083D5CFED
:100CD00085EC8093BC002C9A8091BC008068809346
:100CE000BC00FF91EF91BF91AF919F918F917F9148
:100CF0006F915F914F913F912F910F900FBE0F9089
:100D00001F901895FC018EEF9FEF918380831482D2
:100D1000158216821782118E1382128240E050E0F3
:100D200060E87FE340875187628773871486158662
:100D300016861786108A118A128A138A148A158ACF
:100D4000168A178A108E0895CF92DF92EF92FF9243
:100D50001F93CF93DF93EC01CB01BA01288539852E
:100D60004A855B859CD62C853D854E855F8548D41C
:100D70002BED3FE049EC50E48BD56B017C0111E099
:100D80009B01AC016C817D818E819F8184D6181678
:100D90000CF010E0198FCC82DD82EE82FF82DF91B1
:100DA000CF911F91FF90EF90DF90CF900895FC01BD
:100DB000108E0895CF93DF93EC016C897D898E8925
:100DC0009F89F6D4688FDF91CF910895CF93DF93F9
:100DD000EC01888199810196F9F06C817D818E8189
:100DE0009F81C8D620E030E0A90155D618162CF412
:100DF00060E070E080E89FE303C060E070E0CB015A
:100E0000288939894A895B894AD62C893D894E8946
:100E10005F89F6D3CDD4688FDF91CF910895CF93BA
:100E2000DF93EC0188819981019689F06C817D8145
:100E30008E819F819FD6288939894A895B892FD6DF
:100E40002C893D894E895F89DBD3B2D4688FDF91CD
:100E5000CF910895CF93DF93EC018881998101961A
:100E6000B9F06C817D818E819F818AD620E030E04F
:100E700040E05FE314D67ED6288939894A895B89A8
:100E80000ED62C893D894E895F89BAD391D4688F5B
:100E9000DF91CF910895CF93DF93EC018881998101
:100EA00018161906C4F0892B81F420E030E040E8E0
:100EB0005EE36C817D818E819F81F1D55BD628892F
:100EC00039894A895B89EBD504C0688979898A891F
:100ED0009B896ED4688FDF91CF910895CF93DF9374
:100EE000EC018881998118161906ACF0892B91F4D0
:100EF00020E030E040E85EE36C817D818E819F815F
:100F0000CED5E6D3288939894A895B89C8D550D49A
:100F1000688F01C0188EDF91CF910895CF93DF9332
:100F2000EC0112DF898D882339F08881998197FD42
:100F300003C00197998388838A819B8183309105BF
:100F4000F9F060F48130910599F0029709F56C8908
:100F50007D898E899F892CD4688F1BC0853091052F
:100F600099F050F00697A1F4CE01DF91CF91B6CF62
:100F7000CE01DF91CF9153CFCE01DF91CF9126CF1C
:100F8000CE01DF91CF9166CFCE01DF91CF9183CF9C
:100F9000188EDF91CF9108951092270110922601AB
:100FA00081E080932501109229011092280110926E
:100FB0002B0110922A0110922C0110922D011092F7
:100FC0002E0110922F01089560912C0170912D0136
:100FD00080912E0190912F0117D420E034E244E754
:100FE00057E479D32BED3FE049EC50E458D5089510
:100FF000CF92DF92EF92FF9280912601909127018C
:101000001816190634F4019790932701809326014E
:101010002BC060912C0170912D0180912E01909137
:101020002F01F2D36B017C0120E034E244E757E466
:101030004BD387FF11C020E030E040E850E4C70107
:10104000B601DED2B5D360932C0170932D0180934D
:101050002E0190932F0108C010922C0110922D01A7
:1010600010922E0110922F01FF90EF90DF90CF9001
:101070000895BEDF109225010895E6E2F1E0808137
:1010800091810196918380830895CF92DF92EF92B0
:10109000FF9280912501811159C060912A017091C0
:1010A0002B016115710551F1882777FD8095982FE7
:1010B000ADD36B017C0120E034E244EF56E4EBD485
:1010C00087FD0CC020E034E244E757E4C701B601D5
:1010D00096D220E030E040E85EE306C020E030E059
:1010E00040E85EE3C701B601DAD45DD3709329010D
:1010F0006093280110922B0110922A01E0902801A0
:10110000F0902901B701882777FD8095982F7ED32D
:101110009F7720E030E040E050E4BDD487FD13C06D
:10112000F7FE07C065DF80912801909129010196A3
:1011300006C0A3DF80912801909129010197909327
:1011400029018093280181E080932501FF90EF9091
:10115000DF90CF90089580912C0190912D01909374
:101160002B0180932A0108951092250108959093F0
:101170003D0180933C01089584B1876084B915B81E
:1011800081EA809380008AE08093810081E08093EF
:101190006F0083E085BD85E080936E0008950F9316
:1011A0001F93CF93DF938C01EB01E6DF8AE890E099
:1011B000909331018093300188E890E0909333015F
:1011C000809332019E01220F331F020F131FC901AA
:1011D000805D9E4F20E030E0219722503109CF3FC3
:1011E0004FEFD40759F0F801E20FF31F408151810E
:1011F000FC01E20FF31F57834683EECFDF91CF91BF
:101200001F910F910895EF92FF920F931F93CF9329
:10121000DF93E0913601F0913701608170E080E06A
:1012200090E0F2D220E030E040E853E431D320E017
:1012300030E040E85BE333D420E030E048E452E4BF
:101240002ED4B1D2E62E062F172FE0913801F0915F
:101250003901608170E080E090E0D6D220E030E09B
:1012600040E853E415D320E030E040E85BE317D4D6
:1012700020E030E048E452E412D495D2F62EC62F96
:10128000D72FE0913A01F0913B01608170E080E05E
:1012900090E0BAD220E030E040E853E4F9D220E018
:1012A00030E040E85BE3FBD320E030E040E252E492
:1012B000F6D320E030E040E251E4A2D174D2962F80
:1012C000E0913001F0913101E082E0913201F09142
:1012D0003301F082012B11F4229801C0229ACD2B08
:1012E00011F4219801C0219A6093340181E09B3070
:1012F00008F480E080933501DF91CF911F910F9129
:10130000FF90EF9008951F920F920FB60F92112445
:101310002F933F934F935F936F937F938F939F93FD
:10132000AF93BF93EF93FF93E0913C01F0913D01A8
:10133000309709F00995FF91EF91BF91AF919F917F
:101340008F917F916F915F914F913F912F910F906E
:101350000FBE0F901F9018951F920F920FB60F920D
:1013600011248F938091340188BD809135018823A9
:1013700011F0289A01C028988F910F900FBE0F90FE
:101380001F9018951F920F920FB60F921124289854
:101390000F900FBE0F901F901895109276018FEF4F
:1013A0008093DB0108958091DB018F3F69F41CBCC1
:1013B000109268008FE38AB91BB889B1829586952F
:1013C000869583708093DB018091DB010895F8940A
:1013D00084B7877F84BFE0E6F0E088E1808386ED14
:1013E000808378940895F89484B7877F84BFE0E67B
:1013F000F0E08081806180838DED80837894089512
:10140000F89481E090E019D478940895F89460E01D
:1014100081E090E01AD4789408950F931F93CF93AE
:10142000DF93EB018A01F894FC01608D82E090E08B
:101430000CD4688D83E090E008D4F801608D84E0DE
:1014400090E003D461E081E090E0FFD37894DF91F5
:10145000CF911F910F910895EF92FF920F931F93D9
:10146000CF93DF938C01EB017A01F89482E090E056
:10147000E4D3682F70E080E090E0C6D1F801648B7F
:10148000758B868B978B83E090E0D7D3682F70E0C5
:1014900080E090E0B9D16C8B7D8B8E8B9F8B84E04C
:1014A00090E0CBD3682F70E080E090E0ADD1F70101
:1014B000648B758B868B978B82E090E0F801938329
:1014C00082839B838A83F701938382837894DF915D
:1014D000CF911F910F91FF90EF900895CF93DF93DD
:1014E00000D000D000D0CDB7DEB756DD2FEF81EEB3
:1014F00094E0215080409040E1F700C000004DDFB3
:1015000052DF4CDB8BEA98E058DB83EC90E05ADB4F
:101510008CE591E0F7DB80E491E0F4DB8EED91E087
:10152000F1DB8CE591E020D680E491E022D68EEDCF
:1015300091E024D686E0E0E0F1E0DE011196019032
:101540000D928A95E1F763E070E0CE01019627DE07
:1015500089E398E00CDE8091FB0183FF0FC050DF30
:10156000882339F04EED51E060E471E08CE591E0C4
:1015700073DF39DF81E080935A0102C028DF46DF44
:10158000A895789412E020DD6B017C01AB01BC01D1
:101590008CE591E0C3DCB701A60180E491E0BEDCFC
:1015A000B701A6018EED91E0B9DC2DDE80915A01E4
:1015B000833071F06ADD0EDB7C0109DBB7019FDA55
:1015C000882331F080915A01813011F010935A0133
:1015D00080915A018D7FB9F2A895D5CF0024552767
:1015E00004C0080E591F880F991F009729F076959F
:1015F0006795B8F37105B9F7802D952F0895505868
:10160000BB27AA270ED0FCC1C5D130F0CAD120F02B
:1016100031F49F3F11F41EF4BAC10EF4E095E7FBDC
:10162000A2C1E92F0FD280F3BA17620773078407AC
:10163000950718F071F49EF527C20EF4E0950B2E75
:10164000BA2FA02D0B01B90190010C01CA01A00114
:101650001124FF27591B99F0593F50F4503E68F16F
:101660001A16F040A22F232F342F4427585FF3CFB0
:10167000469537952795A795F0405395C9F77EF481
:101680001F16BA0B620B730B840BBAF09150A1F0CA
:10169000FF0FBB1F661F771F881FC2F70EC0BA0F50
:1016A000621F731F841F48F4879577956795B795D8
:1016B000F7959E3F08F0B3CF9395880F08F09927D0
:1016C000EE0F9795879508952AD108F481E0089543
:1016D00070D1E395A6C10CD093C163D140F05AD12B
:1016E00030F021F45F3F19F03EC15111CEC14FC11E
:1016F000A9D198F39923C9F35523B1F3951B550B41
:10170000BB27AA2762177307840738F09F5F5F4FD4
:10171000220F331F441FAA1FA9F333D00E2E3AF015
:10172000E0E830D091505040E695001CCAF729D02F
:10173000FE2F27D0660F771F881FBB1F261737077E
:101740004807AB07B0E809F0BB0B802DBF01FF27AE
:1017500093585F4F2AF09E3F510568F004C195C130
:101760005F3FECF3983EDCF3869577956795B795E8
:10177000F7959F5FC9F7880F911D9695879597F903
:101780000895E1E0660F771F881FBB1F621773077C
:101790008407BA0720F0621B730B840BBA0BEE1F91
:1017A00088F7E095089504D06894B1116EC108954A
:1017B00051D188F09F5790F0B92F9927B751A0F0D9
:1017C000D1F0660F771F881F991F1AF0BA95C9F7D5
:1017D00012C0B13081F058D1B1E0089555C1672FE2
:1017E000782F8827B85F39F0B93FCCF38695779585
:1017F0006795B395D9F73EF490958095709561956E
:101800007F4F8F4F9F4F0895E89409C097FB3EF498
:1018100090958095709561957F4F8F4F9F4F99233D
:10182000A9F0F92F96E9BB279395F69587957795BB
:101830006795B795F111F8CFFAF4BB0F11F460FF7B
:101840001BC06F5F7F4F8F4F9F4F16C0882311F0D3
:1018500096E911C0772321F09EE8872F762F05C0E7
:10186000662371F096E8862F70E060E02AF09A9582
:10187000660F771F881FDAF7880F9695879597F977
:10188000089588D018F011F08CD038F480C0FDC0D5
:10189000E92FD8D0B0F35523C9F3E7FB62177307DC
:1018A00084079507A8F199F3E92FFF2788232AF0E9
:1018B0003197660F771F881FDAF7952F5527442336
:1018C00032F091505040220F331F441FD2F7BB27F4
:1018D000E91BF50B621B730B840BB109C1F222F4F7
:1018E000620F731F841FB11D31972AF0660F771F97
:1018F000881FBB1FEFCF915050405AF041F0882312
:1019000032F0660F771F881F91505040C1F79395B2
:1019100030C08695779567959F5FD9F7F8CF990F77
:101920000008550FAA0BE0E8FEEF16161706E807A9
:10193000F907C0F012161306E407F50798F0621BCA
:10194000730B840B950B39F40A2661F0232B242B9F
:10195000252B21F408950A2609F4A140A6958FEFBE
:10196000811D811D089597F99F6780E870E060E010
:1019700008959F3F31F0915020F4879577956795B2
:10198000B795880F911D9695879597F908959FEFC4
:1019900080EC089500240A94161617061806090606
:1019A000089500240A9412161306140605060895D5
:1019B000EECF50D0E8F3E894E0E0BB279F57F0F07B
:1019C0002AED3FE049EC06C0EE0FBB0F661F771F04
:1019D000881F28F0B23A62077307840728F0B25ACA
:1019E000620B730B840BE3959A9572F7803830F491
:1019F0009A95BB0F661F771F881FD2F79048BBCF01
:101A0000092E0394000C11F4882352F0BB0F40F40C
:101A1000BF2B11F460FF04C06F5F7F4F8F4F9F4F4C
:101A20000895EF93E0FF06C0A2EA2AED3FE049ECFB
:101A30005FEBF7DDE5DF0F90039401FC9058E2E5E2
:101A4000F0E0BEC057FD9058440F551F59F05F3F5E
:101A500071F04795880F97FB991F61F09F3F79F0D0
:101A600087950895121613061406551FF2CF469552
:101A7000F1DF08C0161617061806991FF1CF8695D4
:101A80007105610508940895E894BB2766277727B8
:101A9000CB0197F9089543DF08F48FEF08950AD03A
:101AA000AFCF78DF28F07DDF18F0952309F05BCF0A
:101AB0006ECFEBCFC7DFA8F39923D9F35523C9F332
:101AC000950F50E0551FAA27EE27FF27BB270024BC
:101AD0000894679520F4E20FF31FB41F0A1E220F2B
:101AE000331F441FAA1F6695A9F7779530F4F30FAB
:101AF000B41F0A1E121E08F46395330F441FAA1F59
:101B0000221F769599F7879520F4B40F0A1E121EAE
:101B1000631F440FAA1F221F331F8695A9F7862F24
:101B2000712D602D11249F5750408AF0E1F08823D9
:101B30004AF0EE0FFF1FBB1F661F771F881F9150D3
:101B40005040A9F79E3F510570F00DCF9ECF5F3FEB
:101B5000ECF3983EDCF3869577956795B795F79506
:101B6000E7959F5FC1F7FE2B880F911D969587958E
:101B700097F908959F931DDF0F9007FCEE5F51CFFB
:101B8000DF93D92F16DFE695D7952AED3FE049E49C
:101B90005FE3B33A6207730784079507D7952AF086
:101BA000A2EA49EC90683DDD2BDFE0E7F0E008D0E9
:101BB000DD0F0BF016D0DD0F0BF49058DF91089578
:101BC0009F938F937F936F93FF93EF939B01AC0150
:101BD00066DFEF91FF910CD02F913F914F915F9174
:101BE0005ECF9B01AC0160E070E080E89FE373CDC5
:101BF000DF93CF931F930F93FF92EF92DF927B01BE
:101C00008C01689405C0DA2EEF0154DFFE01E894E0
:101C1000A5912591359145915591AEF3EF0101DDE7
:101C2000FE019701A801DA9479F7DF90EF90FF9019
:101C30000F911F91CF91DF910895F999FECF1FBAAF
:101C400081BDF89A992780B50895262FF999FECF7E
:101C50001FBA1FBA81BD20BD0FB6F894FA9AF99A3F
:0A1C60000FBE01960895F894FFCF1F
:101C6A0074015801F60101000100010001000100A0
:0C1C7A0001000200010002000100C50092
:00000001FF
